{
  "contractName": "RockPaperScissors",
  "abi": [
    {
      "constant": true,
      "inputs": [
        {
          "name": "",
          "type": "bytes32"
        }
      ],
      "name": "players",
      "outputs": [
        {
          "name": "playerOneBalance",
          "type": "uint256"
        },
        {
          "name": "playerTwoBalance",
          "type": "uint256"
        },
        {
          "name": "playerOneAddress",
          "type": "address"
        },
        {
          "name": "playerTwoAddress",
          "type": "address"
        },
        {
          "name": "playerOneHandGesture",
          "type": "uint8"
        },
        {
          "name": "playerTwoHandGesture",
          "type": "uint8"
        }
      ],
      "payable": false,
      "stateMutability": "view",
      "type": "function"
    },
    {
      "inputs": [],
      "payable": false,
      "stateMutability": "nonpayable",
      "type": "constructor"
    },
    {
      "anonymous": false,
      "inputs": [
        {
          "indexed": false,
          "name": "playerOneAddr",
          "type": "address"
        },
        {
          "indexed": false,
          "name": "playerTwoAddr",
          "type": "address"
        }
      ],
      "name": "LogReturnPlayersKeyAddresses",
      "type": "event"
    },
    {
      "anonymous": false,
      "inputs": [
        {
          "indexed": false,
          "name": "player",
          "type": "address"
        },
        {
          "indexed": false,
          "name": "balanceAdded",
          "type": "uint256"
        }
      ],
      "name": "LogAddToPlayerBalance",
      "type": "event"
    },
    {
      "anonymous": false,
      "inputs": [
        {
          "indexed": false,
          "name": "player",
          "type": "address"
        },
        {
          "indexed": false,
          "name": "handGesture",
          "type": "uint8"
        }
      ],
      "name": "LogPlayersMove",
      "type": "event"
    },
    {
      "anonymous": false,
      "inputs": [
        {
          "indexed": false,
          "name": "player",
          "type": "address"
        },
        {
          "indexed": false,
          "name": "winnings",
          "type": "uint256"
        }
      ],
      "name": "LogWinner",
      "type": "event"
    },
    {
      "anonymous": false,
      "inputs": [
        {
          "indexed": false,
          "name": "player",
          "type": "address"
        },
        {
          "indexed": false,
          "name": "amount",
          "type": "uint256"
        }
      ],
      "name": "LogWithdrawalAmount",
      "type": "event"
    },
    {
      "constant": true,
      "inputs": [
        {
          "name": "playerOneAddr",
          "type": "address"
        },
        {
          "name": "playerTwoAddr",
          "type": "address"
        }
      ],
      "name": "returnPlayersKey",
      "outputs": [
        {
          "name": "",
          "type": "bytes32"
        }
      ],
      "payable": false,
      "stateMutability": "view",
      "type": "function"
    },
    {
      "constant": false,
      "inputs": [
        {
          "name": "playersUniqueKey",
          "type": "bytes32"
        }
      ],
      "name": "addToPlayerOneBalance",
      "outputs": [],
      "payable": true,
      "stateMutability": "payable",
      "type": "function"
    },
    {
      "constant": false,
      "inputs": [
        {
          "name": "playersUniqueKey",
          "type": "bytes32"
        }
      ],
      "name": "addToPlayerTwoBalance",
      "outputs": [],
      "payable": true,
      "stateMutability": "payable",
      "type": "function"
    },
    {
      "constant": false,
      "inputs": [
        {
          "name": "playersUniqueKey",
          "type": "bytes32"
        },
        {
          "name": "handGesture",
          "type": "uint8"
        }
      ],
      "name": "addPlayerOneMove",
      "outputs": [],
      "payable": false,
      "stateMutability": "nonpayable",
      "type": "function"
    },
    {
      "constant": false,
      "inputs": [
        {
          "name": "playersUniqueKey",
          "type": "bytes32"
        },
        {
          "name": "handGesture",
          "type": "uint8"
        }
      ],
      "name": "addPlayerTwoMove",
      "outputs": [],
      "payable": false,
      "stateMutability": "nonpayable",
      "type": "function"
    },
    {
      "constant": false,
      "inputs": [
        {
          "name": "playersUniqueKey",
          "type": "bytes32"
        }
      ],
      "name": "play",
      "outputs": [],
      "payable": false,
      "stateMutability": "nonpayable",
      "type": "function"
    },
    {
      "constant": false,
      "inputs": [
        {
          "name": "playersUniqueKey",
          "type": "bytes32"
        },
        {
          "name": "withdrawalAmount",
          "type": "uint256"
        }
      ],
      "name": "withdrawWinnings",
      "outputs": [],
      "payable": false,
      "stateMutability": "nonpayable",
      "type": "function"
    }
  ],
  "bytecode": "0x608060405234801561001057600080fd5b50611b47806100206000396000f30060806040526004361061008e576000357c0100000000000000000000000000000000000000000000000000000000900463ffffffff1680630f21d81f1461009357806360e6e6d3146100ce5780636ab8ecad146100f2578063730a6891146101305780639424732e1461016e578063c7a1865b1461024a578063ef96b4011461027b578063f4cd1de8146102fa575b600080fd5b34801561009f57600080fd5b506100cc60048036038101908080356000191690602001909291908035906020019092919050505061031e565b005b6100f06004803603810190808035600019169060200190929190505050610a4f565b005b3480156100fe57600080fd5b5061012e6004803603810190808035600019169060200190929190803560ff169060200190929190505050610bc4565b005b34801561013c57600080fd5b5061016c6004803603810190808035600019169060200190929190803560ff169060200190929190505050610dca565b005b34801561017a57600080fd5b5061019d6004803603810190808035600019169060200190929190505050610fd0565b604051808781526020018681526020018573ffffffffffffffffffffffffffffffffffffffff1673ffffffffffffffffffffffffffffffffffffffff1681526020018473ffffffffffffffffffffffffffffffffffffffff1673ffffffffffffffffffffffffffffffffffffffff16815260200183600381111561021d57fe5b60ff16815260200182600381111561023157fe5b60ff168152602001965050505050505060405180910390f35b34801561025657600080fd5b506102796004803603810190808035600019169060200190929190505050611066565b005b34801561028757600080fd5b506102dc600480360381019080803573ffffffffffffffffffffffffffffffffffffffff169060200190929190803573ffffffffffffffffffffffffffffffffffffffff169060200190929190505050611710565b60405180826000191660001916815260200191505060405180910390f35b61031c60048036038101908080356000191690602001909291905050506119a6565b005b600060010282600019161415151561039e576040517f08c379a00000000000000000000000000000000000000000000000000000000081526004018080602001828103825260198152602001807f706c6179657273556e697175654b65792072657175697265640000000000000081525060200191505060405180910390fd5b60008111151561043c576040517f08c379a000000000000000000000000000000000000000000000000000000000815260040180806020018281038252602a8152602001807f7769746864726177616c416d6f756e74206d757374206265206772656174657281526020017f207468616e207a65726f0000000000000000000000000000000000000000000081525060400191505060405180910390fd5b3373ffffffffffffffffffffffffffffffffffffffff16600080846000191660001916815260200190815260200160002060020160009054906101000a900473ffffffffffffffffffffffffffffffffffffffff1673ffffffffffffffffffffffffffffffffffffffff16148061051b57503373ffffffffffffffffffffffffffffffffffffffff16600080846000191660001916815260200190815260200160002060030160009054906101000a900473ffffffffffffffffffffffffffffffffffffffff1673ffffffffffffffffffffffffffffffffffffffff16145b151561058f576040517f08c379a00000000000000000000000000000000000000000000000000000000081526004018080602001828103825260168152602001807f556e6174686f72697a6564207769746864726177616c0000000000000000000081525060200191505060405180910390fd5b3373ffffffffffffffffffffffffffffffffffffffff16600080846000191660001916815260200190815260200160002060020160009054906101000a900473ffffffffffffffffffffffffffffffffffffffff1673ffffffffffffffffffffffffffffffffffffffff1614156107ed577fface55eb3a9c306febe21881e5a07f54a98bdeb7ce5665eff096abd595b476c6600080846000191660001916815260200190815260200160002060020160009054906101000a900473ffffffffffffffffffffffffffffffffffffffff1682604051808373ffffffffffffffffffffffffffffffffffffffff1673ffffffffffffffffffffffffffffffffffffffff1681526020018281526020019250505060405180910390a1806000808460001916600019168152602001908152602001600020600001541015151561073d576040517f08c379a00000000000000000000000000000000000000000000000000000000081526004018080602001828103825260138152602001807f496e73756666696369656e742066756e64732e0000000000000000000000000081525060200191505060405180910390fd5b80600080846000191660001916815260200190815260200160002060000160008282540392505081905550600080836000191660001916815260200190815260200160002060020160009054906101000a900473ffffffffffffffffffffffffffffffffffffffff1673ffffffffffffffffffffffffffffffffffffffff166108fc829081150290604051600060405180830381858888f193505050501580156107eb573d6000803e3d6000fd5b505b3373ffffffffffffffffffffffffffffffffffffffff16600080846000191660001916815260200190815260200160002060030160009054906101000a900473ffffffffffffffffffffffffffffffffffffffff1673ffffffffffffffffffffffffffffffffffffffff161415610a4b577ff05dd6d5ef1b159fa8bca24da165c3455be9d0a863d3b84ff88809c58c3499cb600080846000191660001916815260200190815260200160002060030160009054906101000a900473ffffffffffffffffffffffffffffffffffffffff1682604051808373ffffffffffffffffffffffffffffffffffffffff1673ffffffffffffffffffffffffffffffffffffffff1681526020018281526020019250505060405180910390a1806000808460001916600019168152602001908152602001600020600101541015151561099b576040517f08c379a00000000000000000000000000000000000000000000000000000000081526004018080602001828103825260138152602001807f496e73756666696369656e742066756e64732e0000000000000000000000000081525060200191505060405180910390fd5b80600080846000191660001916815260200190815260200160002060010160008282540392505081905550600080836000191660001916815260200190815260200160002060030160009054906101000a900473ffffffffffffffffffffffffffffffffffffffff1673ffffffffffffffffffffffffffffffffffffffff166108fc829081150290604051600060405180830381858888f19350505050158015610a49573d6000803e3d6000fd5b505b5050565b7fad4cd43bb3a2bfc3d60f73dcb5f9ceea7fd64bbdbddc73dd0c038d6f77538de13334604051808373ffffffffffffffffffffffffffffffffffffffff1673ffffffffffffffffffffffffffffffffffffffff1681526020018281526020019250505060405180910390a16000600102816000191614151515610b3a576040517f08c379a00000000000000000000000000000000000000000000000000000000081526004018080602001828103825260198152602001807f706c6179657273556e697175654b65792072657175697265640000000000000081525060200191505060405180910390fd5b3460008083600019166000191681526020019081526020016000206000016000828254019250508190555033600080836000191660001916815260200190815260200160002060020160006101000a81548173ffffffffffffffffffffffffffffffffffffffff021916908373ffffffffffffffffffffffffffffffffffffffff16021790555050565b60007f21b7110ad5b755cc43251b7245325ecacdb9bdb2385fbaae750ad1f672e8cd943383604051808373ffffffffffffffffffffffffffffffffffffffff1673ffffffffffffffffffffffffffffffffffffffff168152602001826003811115610c2b57fe5b60ff1681526020019250505060405180910390a16000600102836000191614151515610cbf576040517f08c379a00000000000000000000000000000000000000000000000000000000081526004018080602001828103825260198152602001807f706c6179657273556e697175654b65792072657175697265640000000000000081525060200191505060405180910390fd5b610d06600080856000191660001916815260200190815260200160002060020160009054906101000a900473ffffffffffffffffffffffffffffffffffffffff1633611710565b905082600019168160001916141515610d87576040517f08c379a00000000000000000000000000000000000000000000000000000000081526004018080602001828103825260188152602001807f496e76616c696420706c6179657273556e697175654b6579000000000000000081525060200191505060405180910390fd5b81600080856000191660001916815260200190815260200160002060030160156101000a81548160ff02191690836003811115610dc057fe5b0217905550505050565b60007f21b7110ad5b755cc43251b7245325ecacdb9bdb2385fbaae750ad1f672e8cd943383604051808373ffffffffffffffffffffffffffffffffffffffff1673ffffffffffffffffffffffffffffffffffffffff168152602001826003811115610e3157fe5b60ff1681526020019250505060405180910390a16000600102836000191614151515610ec5576040517f08c379a00000000000000000000000000000000000000000000000000000000081526004018080602001828103825260198152602001807f706c6179657273556e697175654b65792072657175697265640000000000000081525060200191505060405180910390fd5b610f0c33600080866000191660001916815260200190815260200160002060030160009054906101000a900473ffffffffffffffffffffffffffffffffffffffff16611710565b905082600019168160001916141515610f8d576040517f08c379a00000000000000000000000000000000000000000000000000000000081526004018080602001828103825260188152602001807f496e76616c696420706c6179657273556e697175654b6579000000000000000081525060200191505060405180910390fd5b81600080856000191660001916815260200190815260200160002060030160146101000a81548160ff02191690836003811115610fc657fe5b0217905550505050565b60006020528060005260406000206000915090508060000154908060010154908060020160009054906101000a900473ffffffffffffffffffffffffffffffffffffffff16908060030160009054906101000a900473ffffffffffffffffffffffffffffffffffffffff16908060030160149054906101000a900460ff16908060030160159054906101000a900460ff16905086565b60003373ffffffffffffffffffffffffffffffffffffffff16600080846000191660001916815260200190815260200160002060020160009054906101000a900473ffffffffffffffffffffffffffffffffffffffff1673ffffffffffffffffffffffffffffffffffffffff16148061114757503373ffffffffffffffffffffffffffffffffffffffff16600080846000191660001916815260200190815260200160002060020160009054906101000a900473ffffffffffffffffffffffffffffffffffffffff1673ffffffffffffffffffffffffffffffffffffffff16145b15156111bb576040517f08c379a00000000000000000000000000000000000000000000000000000000081526004018080602001828103825260138152602001807f556e6174686f72697a656420636f6d6d616e640000000000000000000000000081525060200191505060405180910390fd5b600060010282600019161415151561123b576040517f08c379a00000000000000000000000000000000000000000000000000000000081526004018080602001828103825260198152602001807f706c6179657273556e697175654b65792072657175697265640000000000000081525060200191505060405180910390fd5b60038081111561124757fe5b600080846000191660001916815260200190815260200160002060030160149054906101000a900460ff16600381111561127d57fe5b14151515611319576040517f08c379a00000000000000000000000000000000000000000000000000000000081526004018080602001828103825260228152602001807f506c61796572204f6e6520686173206e6f74206465636964656420676573747581526020017f726500000000000000000000000000000000000000000000000000000000000081525060400191505060405180910390fd5b60038081111561132557fe5b600080846000191660001916815260200190815260200160002060030160159054906101000a900460ff16600381111561135b57fe5b141515156113f7576040517f08c379a00000000000000000000000000000000000000000000000000000000081526004018080602001828103825260228152602001807f506c617965722054776f20686173206e6f74206465636964656420676573747581526020017f726500000000000000000000000000000000000000000000000000000000000081525060400191505060405180910390fd5b6000808360001916600019168152602001908152602001600020600101546000808460001916600019168152602001908152602001600020600001540190506003600080846000191660001916815260200190815260200160002060030160146101000a81548160ff0219169083600381111561147057fe5b02179055506003600080846000191660001916815260200190815260200160002060030160156101000a81548160ff021916908360038111156114af57fe5b021790555060006002600080856000191660001916815260200190815260200160002060030160159054906101000a900460ff1660038111156114ee57fe5b600080866000191660001916815260200190815260200160002060030160149054906101000a900460ff16600381111561152457fe5b0301141561161e577ff05dd6d5ef1b159fa8bca24da165c3455be9d0a863d3b84ff88809c58c3499cb600080846000191660001916815260200190815260200160002060020160009054906101000a900473ffffffffffffffffffffffffffffffffffffffff1682604051808373ffffffffffffffffffffffffffffffffffffffff1673ffffffffffffffffffffffffffffffffffffffff1681526020018281526020019250505060405180910390a180600080846000191660001916815260200190815260200160002060000181905550600080600084600019166000191681526020019081526020016000206001018190555061170c565b7ff05dd6d5ef1b159fa8bca24da165c3455be9d0a863d3b84ff88809c58c3499cb600080846000191660001916815260200190815260200160002060030160009054906101000a900473ffffffffffffffffffffffffffffffffffffffff1682604051808373ffffffffffffffffffffffffffffffffffffffff1673ffffffffffffffffffffffffffffffffffffffff1681526020018281526020019250505060405180910390a16000806000846000191660001916815260200190815260200160002060000181905550806000808460001916600019168152602001908152602001600020600101819055505b5050565b60008073ffffffffffffffffffffffffffffffffffffffff168373ffffffffffffffffffffffffffffffffffffffff16141515156117b6576040517f08c379a000000000000000000000000000000000000000000000000000000000815260040180806020018281038252601b8152602001807f506c61796572206f6e652061646472657373207265717569726564000000000081525060200191505060405180910390fd5b600073ffffffffffffffffffffffffffffffffffffffff168273ffffffffffffffffffffffffffffffffffffffff161415151561185b576040517f08c379a000000000000000000000000000000000000000000000000000000000815260040180806020018281038252601b8152602001807f506c617965722074776f2061646472657373207265717569726564000000000081525060200191505060405180910390fd5b828230604051602001808473ffffffffffffffffffffffffffffffffffffffff1673ffffffffffffffffffffffffffffffffffffffff166c010000000000000000000000000281526014018373ffffffffffffffffffffffffffffffffffffffff1673ffffffffffffffffffffffffffffffffffffffff166c010000000000000000000000000281526014018273ffffffffffffffffffffffffffffffffffffffff1673ffffffffffffffffffffffffffffffffffffffff166c0100000000000000000000000002815260140193505050506040516020818303038152906040526040518082805190602001908083835b602083101515611971578051825260208201915060208101905060208303925061194c565b6001836020036101000a0380198251168184511680821785525050505050509050019150506040518091039020905092915050565b7fad4cd43bb3a2bfc3d60f73dcb5f9ceea7fd64bbdbddc73dd0c038d6f77538de13334604051808373ffffffffffffffffffffffffffffffffffffffff1673ffffffffffffffffffffffffffffffffffffffff1681526020018281526020019250505060405180910390a16000600102816000191614151515611a91576040517f08c379a00000000000000000000000000000000000000000000000000000000081526004018080602001828103825260198152602001807f706c6179657273556e697175654b65792072657175697265640000000000000081525060200191505060405180910390fd5b3460008083600019166000191681526020019081526020016000206001016000828254019250508190555033600080836000191660001916815260200190815260200160002060030160006101000a81548173ffffffffffffffffffffffffffffffffffffffff021916908373ffffffffffffffffffffffffffffffffffffffff160217905550505600a165627a7a7230582060abcd84818984c56586b919ab94eb9a8b4ac70b9d587d8295957348913017880029",
  "source": "pragma solidity 0.4.24;\n\ncontract RockPaperScissors {\n  enum HandGestureEnum {Rock,Paper,Scissors,Nothing}\n\n  struct PlayersStruct\n  {\n    uint playerOneBalance;\n    uint playerTwoBalance;\n    address playerOneAddress;\n    address playerTwoAddress;\n    HandGestureEnum playerOneHandGesture;\n    HandGestureEnum playerTwoHandGesture;\n  }\n\n  mapping (bytes32 => PlayersStruct) public players;\n\n  event LogReturnPlayersKeyAddresses(address playerOneAddr, address playerTwoAddr);\n  event LogAddToPlayerBalance(address player, uint balanceAdded);\n  event LogPlayersMove(address player, HandGestureEnum handGesture);\n  event LogWinner(address player, uint winnings);\n  event LogWithdrawalAmount(address player, uint amount);\n\n  constructor() public {\n\n  }\n\n  function returnPlayersKey(address playerOneAddr, address playerTwoAddr) public view returns(bytes32) {\n    require (playerOneAddr != address(0),\"Player one address required\");\n    require (playerTwoAddr != address(0),\"Player two address required\");\n    return keccak256(abi.encodePacked(playerOneAddr,playerTwoAddr, address(this)));\n  }\n\n  function addToPlayerOneBalance(bytes32 playersUniqueKey) public payable\n  {\n    emit LogAddToPlayerBalance(msg.sender, msg.value);\n    require (playersUniqueKey!=0,\"playersUniqueKey required\");\n    players[playersUniqueKey].playerOneBalance += msg.value;\n    players[playersUniqueKey].playerOneAddress = msg.sender;\n  }\n\n  function addToPlayerTwoBalance(bytes32 playersUniqueKey) public payable\n  {\n    emit LogAddToPlayerBalance(msg.sender, msg.value);\n    require (playersUniqueKey!=0,\"playersUniqueKey required\");\n    players[playersUniqueKey].playerTwoBalance += msg.value;\n    players[playersUniqueKey].playerTwoAddress = msg.sender;\n  }\n\n  function addPlayerOneMove(bytes32 playersUniqueKey, HandGestureEnum handGesture) public\n  {\n    emit LogPlayersMove(msg.sender, handGesture);\n    require (playersUniqueKey!=0,\"playersUniqueKey required\");\n    bytes32 localKey = returnPlayersKey(msg.sender, players[playersUniqueKey].playerTwoAddress);\n    require (localKey == playersUniqueKey,\"Invalid playersUniqueKey\");\n    players[playersUniqueKey].playerOneHandGesture = handGesture;\n  }\n\n  function addPlayerTwoMove(bytes32 playersUniqueKey, HandGestureEnum handGesture) public\n  {\n    emit LogPlayersMove(msg.sender, handGesture);\n    require (playersUniqueKey!=0,\"playersUniqueKey required\");\n    bytes32 localKey = returnPlayersKey(players[playersUniqueKey].playerOneAddress, msg.sender);\n    require (localKey == playersUniqueKey,\"Invalid playersUniqueKey\");\n    players[playersUniqueKey].playerTwoHandGesture = handGesture;\n  }\n\n  function play(bytes32 playersUniqueKey) public\n  {\n    require (players[playersUniqueKey].playerOneAddress == msg.sender || players[playersUniqueKey].playerOneAddress == msg.sender,\"Unathorized command\");\n    require (playersUniqueKey!=0,\"playersUniqueKey required\");\n    require (players[playersUniqueKey].playerOneHandGesture != HandGestureEnum.Nothing,\"Player One has not decided gesture\");\n    require (players[playersUniqueKey].playerTwoHandGesture != HandGestureEnum.Nothing,\"Player Two has not decided gesture\");\n    \n\n    uint winnings = players[playersUniqueKey].playerOneBalance + players[playersUniqueKey].playerTwoBalance;\n    players[playersUniqueKey].playerOneHandGesture = HandGestureEnum.Nothing;\n    players[playersUniqueKey].playerTwoHandGesture = HandGestureEnum.Nothing;      \n    \n    if (uint(players[playersUniqueKey].playerOneHandGesture)-uint(players[playersUniqueKey].playerTwoHandGesture)+5 % 3 == 0)\n    {\n      emit LogWinner(players[playersUniqueKey].playerOneAddress,winnings);\n      players[playersUniqueKey].playerOneBalance = winnings;\n      players[playersUniqueKey].playerTwoBalance = 0;\n    }\n    else\n    {\n      emit LogWinner(players[playersUniqueKey].playerTwoAddress,winnings);\n      players[playersUniqueKey].playerOneBalance = 0;\n      players[playersUniqueKey].playerTwoBalance = winnings;\n    }\n\n  }\n\n  function withdrawWinnings(bytes32 playersUniqueKey, uint withdrawalAmount) public\n  {\n\n    require (playersUniqueKey!=0,\"playersUniqueKey required\");\n    require (withdrawalAmount > 0,\"withdrawalAmount must be greater than zero\");\n    require (players[playersUniqueKey].playerOneAddress == msg.sender || players[playersUniqueKey].playerTwoAddress == msg.sender,\"Unathorized withdrawal\");\n    \n    if (players[playersUniqueKey].playerOneAddress == msg.sender) {\n      emit LogWithdrawalAmount(players[playersUniqueKey].playerOneAddress, withdrawalAmount);\n      require(players[playersUniqueKey].playerOneBalance >= withdrawalAmount, \"Insufficient funds.\");\n      players[playersUniqueKey].playerOneBalance -= withdrawalAmount;\n      players[playersUniqueKey].playerOneAddress.transfer(withdrawalAmount);\n    }\n\n    if (players[playersUniqueKey].playerTwoAddress == msg.sender) {\n      emit LogWinner(players[playersUniqueKey].playerTwoAddress,withdrawalAmount);\n      require(players[playersUniqueKey].playerTwoBalance >= withdrawalAmount, \"Insufficient funds.\");\n      players[playersUniqueKey].playerTwoBalance -= withdrawalAmount;\n      players[playersUniqueKey].playerTwoAddress.transfer(withdrawalAmount);\n    }\n\n  }\n\n}",
  "sourcePath": "/home/richard/DAPPS/RockPaperScissors/contracts/RockPaperScissors.sol",
  "compiler": {
    "name": "solc",
    "version": "0.4.24+commit.e67f0147.Emscripten.clang"
  },
  "schemaVersion": "2.0.1",
  "updatedAt": "2018-10-06T20:00:42.914Z"
}