{
  "contractName": "RockPaperScissors",
  "abi": [
    {
      "constant": true,
      "inputs": [
        {
          "name": "",
          "type": "bytes32"
        }
      ],
      "name": "players",
      "outputs": [
        {
          "name": "winnings",
          "type": "uint256"
        },
        {
          "name": "winnersAddress",
          "type": "address"
        },
        {
          "name": "playerOneEntryDateTimeStamp",
          "type": "uint256"
        },
        {
          "name": "playerOneHandGesture",
          "type": "uint8"
        },
        {
          "name": "complete",
          "type": "bool"
        }
      ],
      "payable": false,
      "stateMutability": "view",
      "type": "function"
    },
    {
      "inputs": [],
      "payable": false,
      "stateMutability": "nonpayable",
      "type": "constructor"
    },
    {
      "anonymous": false,
      "inputs": [
        {
          "indexed": false,
          "name": "player",
          "type": "address"
        },
        {
          "indexed": false,
          "name": "balanceAdded",
          "type": "uint256"
        }
      ],
      "name": "LogAddToPlayerBalance",
      "type": "event"
    },
    {
      "anonymous": false,
      "inputs": [
        {
          "indexed": false,
          "name": "player",
          "type": "address"
        },
        {
          "indexed": false,
          "name": "winnings",
          "type": "uint256"
        }
      ],
      "name": "LogWinner",
      "type": "event"
    },
    {
      "anonymous": false,
      "inputs": [
        {
          "indexed": false,
          "name": "player",
          "type": "address"
        },
        {
          "indexed": false,
          "name": "amount",
          "type": "uint256"
        }
      ],
      "name": "LogWithdrawalAmount",
      "type": "event"
    },
    {
      "anonymous": false,
      "inputs": [
        {
          "indexed": false,
          "name": "player",
          "type": "address"
        },
        {
          "indexed": false,
          "name": "amount",
          "type": "uint256"
        }
      ],
      "name": "LogTransferAmount",
      "type": "event"
    },
    {
      "constant": true,
      "inputs": [],
      "name": "returnPlayersKey",
      "outputs": [
        {
          "name": "",
          "type": "bytes32"
        }
      ],
      "payable": false,
      "stateMutability": "view",
      "type": "function"
    },
    {
      "constant": false,
      "inputs": [
        {
          "name": "playersUniqueKey",
          "type": "bytes32"
        },
        {
          "name": "handGesture",
          "type": "uint8"
        }
      ],
      "name": "playerOneStartGame",
      "outputs": [],
      "payable": true,
      "stateMutability": "payable",
      "type": "function"
    },
    {
      "constant": false,
      "inputs": [
        {
          "name": "playersUniqueKey",
          "type": "bytes32"
        },
        {
          "name": "handGesture",
          "type": "uint8"
        },
        {
          "name": "oldWinnings",
          "type": "bytes32"
        }
      ],
      "name": "playerOneStartGameWithFunds",
      "outputs": [],
      "payable": true,
      "stateMutability": "payable",
      "type": "function"
    },
    {
      "constant": false,
      "inputs": [
        {
          "name": "playersUniqueKey",
          "type": "bytes32"
        },
        {
          "name": "handGesture",
          "type": "uint8"
        }
      ],
      "name": "playerTwoEnterAndPlay",
      "outputs": [],
      "payable": true,
      "stateMutability": "payable",
      "type": "function"
    },
    {
      "constant": false,
      "inputs": [
        {
          "name": "playersUniqueKey",
          "type": "bytes32"
        },
        {
          "name": "handGesture",
          "type": "uint8"
        },
        {
          "name": "oldWinnings",
          "type": "bytes32"
        }
      ],
      "name": "playerTwoEnterAndPlayWithFunds",
      "outputs": [],
      "payable": true,
      "stateMutability": "payable",
      "type": "function"
    },
    {
      "constant": false,
      "inputs": [
        {
          "name": "playersUniqueKey",
          "type": "bytes32"
        }
      ],
      "name": "withdrawBalance",
      "outputs": [],
      "payable": false,
      "stateMutability": "nonpayable",
      "type": "function"
    }
  ],
  "bytecode": "0x60806040526201518060005534801561001757600080fd5b5061146e806100276000396000f300608060405260043610610083576000357c0100000000000000000000000000000000000000000000000000000000900463ffffffff1680630120cabb1461008857806351a7691f146100b9578063766c30b2146100ea57806391a974701461011d5780639424732e1461014e578063c371b712146101ed578063f2c528e51461022c575b600080fd5b6100b76004803603810190808035600019169060200190929190803560ff16906020019092919050505061026b565b005b3480156100c557600080fd5b506100e8600480360381019080803560001916906020019092919050505061027e565b005b3480156100f657600080fd5b506100ff6106cf565b60405180826000191660001916815260200191505060405180910390f35b61014c6004803603810190808035600019169060200190929190803560ff1690602001909291905050506107de565b005b34801561015a57600080fd5b5061017d60048036038101908080356000191690602001909291905050506107f1565b604051808681526020018573ffffffffffffffffffffffffffffffffffffffff1673ffffffffffffffffffffffffffffffffffffffff1681526020018481526020018360038111156101cb57fe5b60ff168152602001821515151581526020019550505050505060405180910390f35b61022a6004803603810190808035600019169060200190929190803560ff1690602001909291908035600019169060200190929190505050610861565b005b6102696004803603810190808035600019169060200190929190803560ff1690602001909291908035600019169060200190929190505050610bf6565b005b61027a82826000600102610bf6565b5050565b6000806001028260001916141515156102ff576040517f08c379a00000000000000000000000000000000000000000000000000000000081526004018080602001828103825260198152602001807f706c6179657273556e697175654b65792072657175697265640000000000000081525060200191505060405180910390fd5b3373ffffffffffffffffffffffffffffffffffffffff1660016000846000191660001916815260200190815260200160002060010160009054906101000a900473ffffffffffffffffffffffffffffffffffffffff1673ffffffffffffffffffffffffffffffffffffffff161415156103e0576040517f08c379a000000000000000000000000000000000000000000000000000000000815260040180806020018281038252600f8152602001807f496e76616c69642061646472657373000000000000000000000000000000000081525060200191505060405180910390fd5b600060016000846000191660001916815260200190815260200160002060000154111515610476576040517f08c379a00000000000000000000000000000000000000000000000000000000081526004018080602001828103825260128152602001807f4e6f2066756e647320617661696c61626c65000000000000000000000000000081525060200191505060405180910390fd5b60016000836000191660001916815260200190815260200160002060030160019054906101000a900460ff1680610504575060016000836000191660001916815260200190815260200160002060030160019054906101000a900460ff16158015610503575042600054600160008560001916600019168152602001908152602001600020600201540111155b5b1515610578576040517f08c379a00000000000000000000000000000000000000000000000000000000081526004018080602001828103825260168152602001807f43616e6e6f742077697468647261772066756e64732e0000000000000000000081525060200191505060405180910390fd5b7fface55eb3a9c306febe21881e5a07f54a98bdeb7ce5665eff096abd595b476c63360016000856000191660001916815260200190815260200160002060000154604051808373ffffffffffffffffffffffffffffffffffffffff1673ffffffffffffffffffffffffffffffffffffffff1681526020018281526020019250505060405180910390a160016000836000191660001916815260200190815260200160002060000154905060006001600084600019166000191681526020019081526020016000206000018190555060016000836000191660001916815260200190815260200160002060010160009054906101000a900473ffffffffffffffffffffffffffffffffffffffff1673ffffffffffffffffffffffffffffffffffffffff166108fc829081150290604051600060405180830381858888f193505050501580156106ca573d6000803e3d6000fd5b505050565b6000334230604051602001808473ffffffffffffffffffffffffffffffffffffffff1673ffffffffffffffffffffffffffffffffffffffff166c010000000000000000000000000281526014018381526020018273ffffffffffffffffffffffffffffffffffffffff1673ffffffffffffffffffffffffffffffffffffffff166c0100000000000000000000000002815260140193505050506040516020818303038152906040526040518082805190602001908083835b6020831015156107ac5780518252602082019150602081019050602083039250610787565b6001836020036101000a0380198251168184511680821785525050505050509050019150506040518091039020905090565b6107ed82826000600102610861565b5050565b60016020528060005260406000206000915090508060000154908060010160009054906101000a900473ffffffffffffffffffffffffffffffffffffffff16908060020154908060030160009054906101000a900460ff16908060030160019054906101000a900460ff16905085565b60007fad4cd43bb3a2bfc3d60f73dcb5f9ceea7fd64bbdbddc73dd0c038d6f77538de13334604051808373ffffffffffffffffffffffffffffffffffffffff1673ffffffffffffffffffffffffffffffffffffffff1681526020018281526020019250505060405180910390a16000905060006001028260001916141515610b0c573373ffffffffffffffffffffffffffffffffffffffff1660016000866000191660001916815260200190815260200160002060010160009054906101000a900473ffffffffffffffffffffffffffffffffffffffff1673ffffffffffffffffffffffffffffffffffffffff161415156109c4576040517f08c379a00000000000000000000000000000000000000000000000000000000081526004018080602001828103825260148152602001807f556e6174686f72697a656420726571756573742e00000000000000000000000081525060200191505060405180910390fd5b60006001600086600019166000191681526020019081526020016000206000015414151515610a5b576040517f08c379a00000000000000000000000000000000000000000000000000000000081526004018080602001828103825260148152602001807f4e6f2066756e647320746f207472616e7366657200000000000000000000000081525060200191505060405180910390fd5b6001600085600019166000191681526020019081526020016000206000015490506000600160008660001916600019168152602001908152602001600020600001819055507fface55eb3a9c306febe21881e5a07f54a98bdeb7ce5665eff096abd595b476c63382604051808373ffffffffffffffffffffffffffffffffffffffff1673ffffffffffffffffffffffffffffffffffffffff1681526020018281526020019250505060405180910390a15b803401600160008660001916600019168152602001908152602001600020600001819055503360016000866000191660001916815260200190815260200160002060010160006101000a81548173ffffffffffffffffffffffffffffffffffffffff021916908373ffffffffffffffffffffffffffffffffffffffff1602179055508260016000866000191660001916815260200190815260200160002060030160006101000a81548160ff02191690836003811115610bc857fe5b0217905550426001600086600019166000191681526020019081526020016000206002018190555050505050565b60007fad4cd43bb3a2bfc3d60f73dcb5f9ceea7fd64bbdbddc73dd0c038d6f77538de13334604051808373ffffffffffffffffffffffffffffffffffffffff1673ffffffffffffffffffffffffffffffffffffffff1681526020018281526020019250505060405180910390a160006001600086600019166000191681526020019081526020016000206002015414151515610cfa576040517f08c379a000000000000000000000000000000000000000000000000000000000815260040180806020018281038252601d8152602001807f43616e6e6f742066696e64206d61746368696e672067616d65206b657900000081525060200191505060405180910390fd5b6000600102846000191614151515610d7a576040517f08c379a00000000000000000000000000000000000000000000000000000000081526004018080602001828103825260198152602001807f706c6179657273556e697175654b65792072657175697265640000000000000081525060200191505060405180910390fd5b60016000856000191660001916815260200190815260200160002060030160019054906101000a900460ff16151515610e1b576040517f08c379a000000000000000000000000000000000000000000000000000000000815260040180806020018281038252600f8152602001807f47616d6520636f6d706c657465642e000000000000000000000000000000000081525060200191505060405180910390fd5b3460016000866000191660001916815260200190815260200160002060000154141515610ed6576040517f08c379a00000000000000000000000000000000000000000000000000000000081526004018080602001828103825260278152602001807f596f75206d7573742070757420696e207468652073616d6520616d6f756e742081526020017f746f20706c61790000000000000000000000000000000000000000000000000081525060400191505060405180910390fd5b6001806000866000191660001916815260200190815260200160002060030160016101000a81548160ff021916908315150217905550600090506000600102826000191614151561114a573373ffffffffffffffffffffffffffffffffffffffff1660016000866000191660001916815260200190815260200160002060010160009054906101000a900473ffffffffffffffffffffffffffffffffffffffff1673ffffffffffffffffffffffffffffffffffffffff16141515611002576040517f08c379a00000000000000000000000000000000000000000000000000000000081526004018080602001828103825260148152602001807f556e6174686f72697a656420726571756573742e00000000000000000000000081525060200191505060405180910390fd5b60006001600086600019166000191681526020019081526020016000206000015414151515611099576040517f08c379a00000000000000000000000000000000000000000000000000000000081526004018080602001828103825260148152602001807f4e6f2066756e647320746f207472616e7366657200000000000000000000000081525060200191505060405180910390fd5b6001600085600019166000191681526020019081526020016000206000015490506000600160008660001916600019168152602001908152602001600020600001819055507fb01d44d1b93223fa21e563f280494d71fd31552b502915c2e2793979d206d7ba3382604051808373ffffffffffffffffffffffffffffffffffffffff1673ffffffffffffffffffffffffffffffffffffffff1681526020018281526020019250505060405180910390a15b803401600160008660001916600019168152602001908152602001600020600001600082825401925050819055506000600284600381111561118857fe5b60016000886000191660001916815260200190815260200160002060030160009054906101000a900460ff1660038111156111bf57fe5b03011415611293577ff05dd6d5ef1b159fa8bca24da165c3455be9d0a863d3b84ff88809c58c3499cb60016000866000191660001916815260200190815260200160002060010160009054906101000a900473ffffffffffffffffffffffffffffffffffffffff1660016000876000191660001916815260200190815260200160002060000154604051808373ffffffffffffffffffffffffffffffffffffffff1673ffffffffffffffffffffffffffffffffffffffff1681526020018281526020019250505060405180910390a161143c565b600160028460038111156112a357fe5b60016000886000191660001916815260200190815260200160002060030160009054906101000a900460ff1660038111156112da57fe5b030114156113cd577ff05dd6d5ef1b159fa8bca24da165c3455be9d0a863d3b84ff88809c58c3499cb3360016000876000191660001916815260200190815260200160002060000154604051808373ffffffffffffffffffffffffffffffffffffffff1673ffffffffffffffffffffffffffffffffffffffff1681526020018281526020019250505060405180910390a13360016000866000191660001916815260200190815260200160002060010160006101000a81548173ffffffffffffffffffffffffffffffffffffffff021916908373ffffffffffffffffffffffffffffffffffffffff16021790555061143b565b6040517f08c379a000000000000000000000000000000000000000000000000000000000815260040180806020018281038252600b8152602001807f497427732061207469652100000000000000000000000000000000000000000081525060200191505060405180910390fd5b5b505050505600a165627a7a7230582007063c086e532897dfd492bbbfd4a5f5e5c1a84776915a798e19a8108ff60a520029",
  "source": "pragma solidity 0.4.24;\n\ncontract RockPaperScissors {\n  enum HandGestureEnum {Rock,Paper,Scissors,Nothing}\n\n  struct PlayersStruct\n  {\n    uint winnings;\n    address winnersAddress;\n    uint playerOneEntryDateTimeStamp;\n    HandGestureEnum playerOneHandGesture;\n    bool complete;\n  }\n\n  uint timeLimit = 1 days;\n\n  mapping (bytes32 => PlayersStruct) public players;\n\n\n  event LogAddToPlayerBalance(address player, uint balanceAdded);\n  event LogWinner(address player, uint winnings);\n  event LogWithdrawalAmount(address player, uint amount);\n  event LogTransferAmount(address player, uint amount);\n\n  constructor() public {\n\n  }\n\n  function returnPlayersKey() public view returns(bytes32) {\n\t  return keccak256(abi.encodePacked(msg.sender,now, address(this)));\n  }\n\n  function playerOneStartGame(bytes32 playersUniqueKey,HandGestureEnum handGesture) public payable  {\n    playerOneStartGameWithFunds(playersUniqueKey,handGesture,0);\n  }\n\n  function playerOneStartGameWithFunds(bytes32 playersUniqueKey,HandGestureEnum handGesture, bytes32 oldWinnings) public payable {\n\t  emit LogAddToPlayerBalance(msg.sender, msg.value);\n    uint additionalFunds = 0;\n    if (oldWinnings!=0)\n    {\n      require (players[playersUniqueKey].winnersAddress == msg.sender,\"Unathorized request.\");\n      require (players[playersUniqueKey].winnings != 0,\"No funds to transfer\");\n      additionalFunds = players[playersUniqueKey].winnings;\n      players[playersUniqueKey].winnings = 0;\n      emit LogWithdrawalAmount(msg.sender,additionalFunds);\n\n    }\n    players[playersUniqueKey].winnings = msg.value + additionalFunds;\n    players[playersUniqueKey].winnersAddress = msg.sender;\n    players[playersUniqueKey].playerOneHandGesture = handGesture;\n    players[playersUniqueKey].playerOneEntryDateTimeStamp = now;\n  }\n\n  function playerTwoEnterAndPlay(bytes32 playersUniqueKey, HandGestureEnum handGesture) public payable\n  {\n    playerTwoEnterAndPlayWithFunds(playersUniqueKey,handGesture,0);\n  }\n\n  function playerTwoEnterAndPlayWithFunds(bytes32 playersUniqueKey, HandGestureEnum handGesture, bytes32 oldWinnings) public payable\n  {\n    emit LogAddToPlayerBalance(msg.sender, msg.value);\n    require (players[playersUniqueKey].playerOneEntryDateTimeStamp!=0,\"Cannot find matching game key\");\n    require (playersUniqueKey!=0,\"playersUniqueKey required\");\n    require (!players[playersUniqueKey].complete,\"Game completed.\");\n    require (players[playersUniqueKey].winnings==msg.value,\"You must put in the same amount to play\");\n    players[playersUniqueKey].complete = true;\n    uint additionalFunds = 0;\n\n    if (oldWinnings!=0)\n    {\n\n      require (players[playersUniqueKey].winnersAddress == msg.sender,\"Unathorized request.\");\n      require (players[playersUniqueKey].winnings != 0,\"No funds to transfer\");\n      additionalFunds = players[playersUniqueKey].winnings;\n      players[playersUniqueKey].winnings = 0;\n      emit LogTransferAmount(msg.sender,additionalFunds);\n\n    }\n\n    players[playersUniqueKey].winnings += (msg.value + additionalFunds);\n   \n    if (uint(players[playersUniqueKey].playerOneHandGesture)-uint(handGesture)+5 % 3 == 0)\n    {\n      emit LogWinner(players[playersUniqueKey].winnersAddress,players[playersUniqueKey].winnings);\n    }\n    else\n    {\n      if (uint(players[playersUniqueKey].playerOneHandGesture)-uint(handGesture)+5 % 3 == 1)\n      {\n        emit LogWinner(msg.sender,players[playersUniqueKey].winnings);\n        players[playersUniqueKey].winnersAddress = msg.sender;\n      }\n      else\n      {\n        revert(\"It's a tie!\");\n      }\n    }\n  }\n  \n  \n  function withdrawBalance(bytes32 playersUniqueKey) public\n  {\n    require (playersUniqueKey!=0,\"playersUniqueKey required\");\n    require (players[playersUniqueKey].winnersAddress == msg.sender,\"Invalid address\");\n    require (players[playersUniqueKey].winnings > 0,\"No funds available\");\n    require (players[playersUniqueKey].complete || (!players[playersUniqueKey].complete && players[playersUniqueKey].playerOneEntryDateTimeStamp + timeLimit <= now),\"Cannot withdraw funds.\");\n    emit LogWithdrawalAmount(msg.sender,players[playersUniqueKey].winnings);\n    uint winnings = players[playersUniqueKey].winnings;\n    players[playersUniqueKey].winnings = 0;\n    players[playersUniqueKey].winnersAddress.transfer(winnings);\n  }\n\n}",
  "sourcePath": "/home/richard/DAPPS/RockPaperScissors/contracts/RockPaperScissors.sol",
  "compiler": {
    "name": "solc",
    "version": "0.4.24+commit.e67f0147.Emscripten.clang"
  },
  "schemaVersion": "2.0.1",
  "updatedAt": "2018-10-08T06:18:08.700Z"
}